:10024C003F065B4F666D7D077F6F777C395E7971FA
:05025C007679383F0037
:06022800C2977F017E0079
:10022E00D3EF9400EE940040147D6E7C00ED1D70B3
:0D023E00011CED4C70F7EF1F70E61E80E311
:01024B002290
:1001D100120202E51164016014850B15850F168565
:1001E10010177B057D067F071200AA80E6751512A0
:1001F1007516137517147B127D117F101200AA80DA
:01020100D22A
:10020200750D01750EB0750CFE850C907589117512
:100212008C3C758AB0758D3C758BB0D2AFD2A9D2A9
:06022200ABD28CD28E224B
:03000B0002017F70
:10017F00C0E0C0D075D000C000C007758C3C758A38
:10018F00B00509E5086401601AE509640A702A756B
:10019F000901AF0C7801EF08800123D8FDF50CF5AC
:1001AF00908016E509540370036390FFE509B43C92
:1001BF0008C28C7590FF751101D007D000D0D0D038
:0201CF00E0321C
:03001B0002001EC2
:10001E00C0E0C0F0C0D075D000C000C004C005C0A4
:10002E0006C007758D3C758BB0050AE50A64027033
:10003E005A750A01E50E150E7002150DAE0DAF0EB6
:10004E007C007D6412012A8F0BAE0DAF0E7C007DFD
:10005E006412012A7E007F0ACFCDCFCECCCE120104
:10006E002A8F0FE50B75F00A8485F010E50EB48E1D
:10007E001AE50DB40115C28C758C3C758AB0C28C14
:10008E007508017509007590FFC28ED007D006D095
:0C009E0005D004D000D0D0D0F0D0E0326B
:1000AA00AA05D296EF90024C93F580C2967580FF0E
:1000BA00D2977580FE120228D296EA93F580C296EC
:1000CA007580FFD2977580FD120228D296EB93F5C0
:1000DA0080C2967580FFD2977580FB120228D2964D
:1000EA00E51593F580C2967580FFD2977580F71251
:1000FA000228D296E51693F580C2967580FFD297AC
:10010A007580EF120228D296E51793F580C296758C
:10011A0080FFD2977580DFC2977F017E0002022E90
:0300000002000EED
:0C000E00787FE4F6D8FD7581170201D15F
:10012A00BC000BBE0029EF8DF084FFADF022E4CCB9
:10013A00F875F008EF2FFFEE33FEEC33FCEE9DEC82
:10014A00984005FCEE9DFE0FD5F0E9E4CEFD22EDC8
:10015A00F8F5F0EE8420D21CFEADF075F008EF2F12
:10016A00FFED33FD4007985006D5F0F222C398FD03
:05017A000FD5F0EA22A0
:00000001FF
